{
  "contractName": "ReceiptSystem",
  "abi": [
    {
      "anonymous": false,
      "inputs": [
        {
          "indexed": false,
          "internalType": "uint256",
          "name": "Rid",
          "type": "uint256"
        },
        {
          "indexed": false,
          "internalType": "string",
          "name": "date",
          "type": "string"
        },
        {
          "indexed": false,
          "internalType": "string",
          "name": "time",
          "type": "string"
        }
      ],
      "name": "LogReceipt",
      "type": "event"
    },
    {
      "constant": true,
      "inputs": [],
      "name": "ReceiptCount",
      "outputs": [
        {
          "internalType": "uint256",
          "name": "",
          "type": "uint256"
        }
      ],
      "payable": false,
      "stateMutability": "view",
      "type": "function"
    },
    {
      "constant": true,
      "inputs": [],
      "name": "receiptmessage",
      "outputs": [
        {
          "internalType": "string",
          "name": "",
          "type": "string"
        }
      ],
      "payable": false,
      "stateMutability": "view",
      "type": "function"
    },
    {
      "constant": false,
      "inputs": [
        {
          "internalType": "uint256",
          "name": "_Rid",
          "type": "uint256"
        },
        {
          "internalType": "string",
          "name": "_RDate",
          "type": "string"
        },
        {
          "internalType": "string",
          "name": "_Rtime",
          "type": "string"
        }
      ],
      "name": "insertReceipt",
      "outputs": [],
      "payable": false,
      "stateMutability": "nonpayable",
      "type": "function"
    },
    {
      "constant": true,
      "inputs": [
        {
          "internalType": "uint256",
          "name": "index",
          "type": "uint256"
        }
      ],
      "name": "getReceipt",
      "outputs": [
        {
          "internalType": "uint256",
          "name": "_Rid",
          "type": "uint256"
        },
        {
          "internalType": "string",
          "name": "_Rdate",
          "type": "string"
        },
        {
          "internalType": "string",
          "name": "_Rtime",
          "type": "string"
        }
      ],
      "payable": false,
      "stateMutability": "view",
      "type": "function"
    },
    {
      "constant": true,
      "inputs": [],
      "name": "getReceiptCount",
      "outputs": [
        {
          "internalType": "uint256",
          "name": "count",
          "type": "uint256"
        }
      ],
      "payable": false,
      "stateMutability": "view",
      "type": "function"
    },
    {
      "constant": true,
      "inputs": [],
      "name": "hello",
      "outputs": [
        {
          "internalType": "string",
          "name": "",
          "type": "string"
        }
      ],
      "payable": false,
      "stateMutability": "view",
      "type": "function"
    }
  ],
  "bytecode": "0x6080604052600080556040518060400160405280600b81526020017f68656c6c6f20776f726c6400000000000000000000000000000000000000000081525060019080519060200190610053929190610066565b5034801561006057600080fd5b5061010b565b828054600181600116156101000203166002900490600052602060002090601f016020900481019282601f106100a757805160ff19168380011785556100d5565b828001600101855582156100d5579182015b828111156100d45782518255916020019190600101906100b9565b5b5090506100e291906100e6565b5090565b61010891905b808211156101045760008160009055506001016100ec565b5090565b90565b61090b8061011a6000396000f3fe608060405234801561001057600080fd5b50600436106100625760003560e01c8063040875fc1461006757806319ff1d2114610085578063519e3f7e146101085780638be731b71461018b5780638fa2e104146102e7578063b63e6ac314610305575b600080fd5b61006f61041f565b6040518082815260200191505060405180910390f35b61008d610428565b6040518080602001828103825283818151815260200191508051906020019080838360005b838110156100cd5780820151818401526020810190506100b2565b50505050905090810190601f1680156100fa5780820380516001836020036101000a031916815260200191505b509250505060405180910390f35b610110610465565b6040518080602001828103825283818151815260200191508051906020019080838360005b83811015610150578082015181840152602081019050610135565b50505050905090810190601f16801561017d5780820380516001836020036101000a031916815260200191505b509250505060405180910390f35b6102e5600480360360608110156101a157600080fd5b8101908080359060200190929190803590602001906401000000008111156101c857600080fd5b8201836020820111156101da57600080fd5b803590602001918460018302840111640100000000831117156101fc57600080fd5b91908080601f016020809104026020016040519081016040528093929190818152602001838380828437600081840152601f19601f8201169050808301925050505050505091929192908035906020019064010000000081111561025f57600080fd5b82018360208201111561027157600080fd5b8035906020019184600183028401116401000000008311171561029357600080fd5b91908080601f016020809104026020016040519081016040528093929190818152602001838380828437600081840152601f19601f820116905080830192505050505050509192919290505050610503565b005b6102ef61069e565b6040518082815260200191505060405180910390f35b6103316004803603602081101561031b57600080fd5b81019080803590602001909291905050506106a4565b604051808481526020018060200180602001838103835285818151815260200191508051906020019080838360005b8381101561037b578082015181840152602081019050610360565b50505050905090810190601f1680156103a85780820380516001836020036101000a031916815260200191505b50838103825284818151815260200191508051906020019080838360005b838110156103e15780820151818401526020810190506103c6565b50505050905090810190601f16801561040e5780820380516001836020036101000a031916815260200191505b509550505050505060405180910390f35b60008054905090565b60606040518060400160405280600b81526020017f68656c6c6f20776f726c64000000000000000000000000000000000000000000815250905090565b60018054600181600116156101000203166002900480601f0160208091040260200160405190810160405280929190818152602001828054600181600116156101000203166002900480156104fb5780601f106104d0576101008083540402835291602001916104fb565b820191906000526020600020905b8154815290600101906020018083116104de57829003601f168201915b505050505081565b600080815480929190600101919050555082600260008054815260200190815260200160002060000181905550816002600080548152602001908152602001600020600101908051906020019061055b929190610831565b508060026000805481526020019081526020016000206002019080519060200190610587929190610831565b507f6d0dfcc51bbc549593c049f7efea6f7ea39be4defc6e9e0687aa4b600c1a9a81838383604051808481526020018060200180602001838103835285818151815260200191508051906020019080838360005b838110156105f65780820151818401526020810190506105db565b50505050905090810190601f1680156106235780820380516001836020036101000a031916815260200191505b50838103825284818151815260200191508051906020019080838360005b8381101561065c578082015181840152602081019050610641565b50505050905090810190601f1680156106895780820380516001836020036101000a031916815260200191505b509550505050505060405180910390a1505050565b60005481565b600060608060026000858152602001908152602001600020600001546002600086815260200190815260200160002060010160026000878152602001908152602001600020600201818054600181600116156101000203166002900480601f0160208091040260200160405190810160405280929190818152602001828054600181600116156101000203166002900480156107815780601f1061075657610100808354040283529160200191610781565b820191906000526020600020905b81548152906001019060200180831161076457829003601f168201915b50505050509150808054600181600116156101000203166002900480601f01602080910402602001604051908101604052809291908181526020018280546001816001161561010002031660029004801561081d5780601f106107f25761010080835404028352916020019161081d565b820191906000526020600020905b81548152906001019060200180831161080057829003601f168201915b505050505090509250925092509193909250565b828054600181600116156101000203166002900490600052602060002090601f016020900481019282601f1061087257805160ff19168380011785556108a0565b828001600101855582156108a0579182015b8281111561089f578251825591602001919060010190610884565b5b5090506108ad91906108b1565b5090565b6108d391905b808211156108cf5760008160009055506001016108b7565b5090565b9056fea265627a7a723158208b56b60217282a0137f4ee388db3d395a2ca39324391707399250c0afe2353a764736f6c63430005100032",
  "source": "pragma solidity >=0.4.22 <0.8.0;\r\n\r\n\r\ncontract ReceiptSystem{\r\n    uint public ReceiptCount = 0;\r\n    string public receiptmessage = \"hello world\";\r\n    struct Receipt{\r\n        uint Rid;\r\n        string date;\r\n        string time;\r\n        \r\n    }\r\n    event LogReceipt(uint Rid, string date, string time);\r\n    mapping(uint => Receipt) private Receipts;\r\n    function insertReceipt(\r\n        uint _Rid,\r\n        string memory _RDate,\r\n        string memory _Rtime)\r\n        public {\r\n            ReceiptCount++;\r\n            Receipts[ReceiptCount].Rid = _Rid;\r\n            Receipts[ReceiptCount].date = _RDate;\r\n            Receipts[ReceiptCount].time = _Rtime;\r\n            emit LogReceipt(_Rid, _RDate, _Rtime);\r\n    }\r\n    function getReceipt(\r\n        uint index\r\n    )\r\n    public \r\n    view\r\n    returns(uint _Rid, string memory _Rdate, string memory _Rtime){\r\n        return(\r\n            Receipts[index].Rid,\r\n            Receipts[index].date,\r\n            Receipts[index].time);\r\n        \r\n    }\r\n    function getReceiptCount() \r\n    public \r\n    view\r\n    returns(uint count){\r\n        return ReceiptCount;\r\n    }\r\n    function hello() public view returns(string memory){\r\n        return \"hello world\";\r\n    }\r\n    \r\n}\r\n//let instance = await ReceiptSystem.deployed()\r\n//instance.insertReceipt(1,'2022-03-27','4:19PM')\r\n//instance.getReceiptCount()\r\n//instance.getReceipt(1)",
  "sourcePath": "D:\\Programming\\Solidity\\Capstone\\contracts\\ReceiptSystem.sol",
  "compiler": {
    "name": "solc",
    "version": "0.5.16+commit.9c3226ce.Emscripten.clang"
  },
  "schemaVersion": "3.4.6",
  "updatedAt": "2022-03-27T23:06:31.941Z",
  "networkType": "ethereum",
  "devdoc": {
    "methods": {}
  },
  "userdoc": {
    "methods": {}
  }
}